{
  "_format": "hh-sol-artifact-1",
  "contractName": "VaultPointer",
  "sourceName": "contracts/VaultPointer.sol",
  "abi": [
    {
      "anonymous": false,
      "inputs": [
        {
          "indexed": true,
          "internalType": "address",
          "name": "user",
          "type": "address"
        },
        {
          "indexed": false,
          "internalType": "string",
          "name": "cid",
          "type": "string"
        },
        {
          "indexed": false,
          "internalType": "uint256",
          "name": "timestamp",
          "type": "uint256"
        }
      ],
      "name": "VaultUpdated",
      "type": "event"
    },
    {
      "inputs": [
        {
          "internalType": "address",
          "name": "_user",
          "type": "address"
        }
      ],
      "name": "getVaultPointer",
      "outputs": [
        {
          "internalType": "string",
          "name": "cid",
          "type": "string"
        },
        {
          "internalType": "uint256",
          "name": "updatedAt",
          "type": "uint256"
        }
      ],
      "stateMutability": "view",
      "type": "function"
    },
    {
      "inputs": [
        {
          "internalType": "string",
          "name": "_cid",
          "type": "string"
        }
      ],
      "name": "updateVaultPointer",
      "outputs": [],
      "stateMutability": "nonpayable",
      "type": "function"
    }
  ],
  "bytecode": "0x608060405234801561001057600080fd5b50610941806100206000396000f3fe608060405234801561001057600080fd5b50600436106100365760003560e01c806335ff93f21461003b578063a9a06bc81461006c575b600080fd5b61005560048036038101906100509190610346565b610088565b60405161006392919061041c565b60405180910390f35b610086600480360381019061008191906104b1565b610188565b005b60606000806000808573ffffffffffffffffffffffffffffffffffffffff1673ffffffffffffffffffffffffffffffffffffffff1681526020019081526020016000206040518060400160405290816000820180546100e69061052d565b80601f01602080910402602001604051908101604052809291908181526020018280546101129061052d565b801561015f5780601f106101345761010080835404028352916020019161015f565b820191906000526020600020905b81548152906001019060200180831161014257829003601f168201915b505050505081526020016001820154815250509050806000015181602001519250925050915091565b600082829050116101ce576040517f08c379a00000000000000000000000000000000000000000000000000000000081526004016101c5906105d0565b60405180910390fd5b604051806040016040528083838080601f016020809104026020016040519081016040528093929190818152602001838380828437600081840152601f19601f820116905080830192505050505050508152602001428152506000803373ffffffffffffffffffffffffffffffffffffffff1673ffffffffffffffffffffffffffffffffffffffff168152602001908152602001600020600082015181600001908161027a91906107cb565b50602082015181600101559050503373ffffffffffffffffffffffffffffffffffffffff167fcea02c5c770d1f3527cd751888e42d01a5f312cf082577db4c807384a9675fe38383426040516102d2939291906108d9565b60405180910390a25050565b600080fd5b600080fd5b600073ffffffffffffffffffffffffffffffffffffffff82169050919050565b6000610313826102e8565b9050919050565b61032381610308565b811461032e57600080fd5b50565b6000813590506103408161031a565b92915050565b60006020828403121561035c5761035b6102de565b5b600061036a84828501610331565b91505092915050565b600081519050919050565b600082825260208201905092915050565b60005b838110156103ad578082015181840152602081019050610392565b60008484015250505050565b6000601f19601f8301169050919050565b60006103d582610373565b6103df818561037e565b93506103ef81856020860161038f565b6103f8816103b9565b840191505092915050565b6000819050919050565b61041681610403565b82525050565b6000604082019050818103600083015261043681856103ca565b9050610445602083018461040d565b9392505050565b600080fd5b600080fd5b600080fd5b60008083601f8401126104715761047061044c565b5b8235905067ffffffffffffffff81111561048e5761048d610451565b5b6020830191508360018202830111156104aa576104a9610456565b5b9250929050565b600080602083850312156104c8576104c76102de565b5b600083013567ffffffffffffffff8111156104e6576104e56102e3565b5b6104f28582860161045b565b92509250509250929050565b7f4e487b7100000000000000000000000000000000000000000000000000000000600052602260045260246000fd5b6000600282049050600182168061054557607f821691505b602082108103610558576105576104fe565b5b50919050565b7f5661756c74506f696e7465723a204349442063616e6e6f7420626520656d707460008201527f7900000000000000000000000000000000000000000000000000000000000000602082015250565b60006105ba60218361037e565b91506105c58261055e565b604082019050919050565b600060208201905081810360008301526105e9816105ad565b9050919050565b7f4e487b7100000000000000000000000000000000000000000000000000000000600052604160045260246000fd5b60008190508160005260206000209050919050565b60006020601f8301049050919050565b600082821b905092915050565b6000600883026106817fffffffffffffffffffffffffffffffffffffffffffffffffffffffffffffffff82610644565b61068b8683610644565b95508019841693508086168417925050509392505050565b6000819050919050565b60006106c86106c36106be84610403565b6106a3565b610403565b9050919050565b6000819050919050565b6106e2836106ad565b6106f66106ee826106cf565b848454610651565b825550505050565b600090565b61070b6106fe565b6107168184846106d9565b505050565b5b8181101561073a5761072f600082610703565b60018101905061071c565b5050565b601f82111561077f576107508161061f565b61075984610634565b81016020851015610768578190505b61077c61077485610634565b83018261071b565b50505b505050565b600082821c905092915050565b60006107a260001984600802610784565b1980831691505092915050565b60006107bb8383610791565b9150826002028217905092915050565b6107d482610373565b67ffffffffffffffff8111156107ed576107ec6105f0565b5b6107f7825461052d565b61080282828561073e565b600060209050601f8311600181146108355760008415610823578287015190505b61082d85826107af565b865550610895565b601f1984166108438661061f565b60005b8281101561086b57848901518255600182019150602085019450602081019050610846565b868310156108885784890151610884601f891682610791565b8355505b6001600288020188555050505b505050505050565b82818337600083830152505050565b60006108b8838561037e565b93506108c583858461089d565b6108ce836103b9565b840190509392505050565b600060408201905081810360008301526108f48185876108ac565b9050610903602083018461040d565b94935050505056fea264697066735822122080f50999596e67e010d8c02d27a1a116750d9751a0afc3f2c20a29cdc403cce364736f6c63430008130033",
  "linkReferences": {},
  "deployedLinkReferences": {}
}